{
  "contractName": "Articulate",
  "abi": [
    {
      "inputs": [
        {
          "internalType": "uint256",
          "name": "",
          "type": "uint256"
        }
      ],
      "name": "Evidence",
      "outputs": [
        {
          "internalType": "string",
          "name": "",
          "type": "string"
        }
      ],
      "stateMutability": "view",
      "type": "function",
      "constant": true
    },
    {
      "inputs": [
        {
          "internalType": "uint256",
          "name": "",
          "type": "uint256"
        }
      ],
      "name": "articles",
      "outputs": [
        {
          "internalType": "string",
          "name": "title",
          "type": "string"
        },
        {
          "internalType": "address payable",
          "name": "author",
          "type": "address"
        },
        {
          "internalType": "string",
          "name": "evidence",
          "type": "string"
        },
        {
          "internalType": "bool",
          "name": "proof",
          "type": "bool"
        },
        {
          "internalType": "uint256",
          "name": "price",
          "type": "uint256"
        },
        {
          "internalType": "string",
          "name": "summary",
          "type": "string"
        },
        {
          "internalType": "string",
          "name": "content",
          "type": "string"
        },
        {
          "internalType": "uint256",
          "name": "credibility",
          "type": "uint256"
        }
      ],
      "stateMutability": "view",
      "type": "function",
      "constant": true
    },
    {
      "inputs": [
        {
          "internalType": "address",
          "name": "",
          "type": "address"
        }
      ],
      "name": "bio",
      "outputs": [
        {
          "internalType": "string",
          "name": "",
          "type": "string"
        }
      ],
      "stateMutability": "view",
      "type": "function",
      "constant": true
    },
    {
      "inputs": [
        {
          "internalType": "uint256",
          "name": "",
          "type": "uint256"
        }
      ],
      "name": "comments",
      "outputs": [
        {
          "internalType": "address",
          "name": "sender",
          "type": "address"
        },
        {
          "internalType": "string",
          "name": "message",
          "type": "string"
        }
      ],
      "stateMutability": "view",
      "type": "function",
      "constant": true
    },
    {
      "inputs": [
        {
          "internalType": "string",
          "name": "",
          "type": "string"
        },
        {
          "internalType": "uint256",
          "name": "",
          "type": "uint256"
        }
      ],
      "name": "commentsByArticle",
      "outputs": [
        {
          "internalType": "uint256",
          "name": "",
          "type": "uint256"
        }
      ],
      "stateMutability": "view",
      "type": "function",
      "constant": true
    },
    {
      "inputs": [
        {
          "internalType": "address",
          "name": "",
          "type": "address"
        },
        {
          "internalType": "uint256",
          "name": "",
          "type": "uint256"
        }
      ],
      "name": "myArticles",
      "outputs": [
        {
          "internalType": "uint256",
          "name": "",
          "type": "uint256"
        }
      ],
      "stateMutability": "view",
      "type": "function",
      "constant": true
    },
    {
      "inputs": [
        {
          "internalType": "address",
          "name": "",
          "type": "address"
        },
        {
          "internalType": "uint256",
          "name": "",
          "type": "uint256"
        }
      ],
      "name": "myEvidence",
      "outputs": [
        {
          "internalType": "uint256",
          "name": "",
          "type": "uint256"
        }
      ],
      "stateMutability": "view",
      "type": "function",
      "constant": true
    },
    {
      "inputs": [
        {
          "internalType": "address",
          "name": "",
          "type": "address"
        },
        {
          "internalType": "uint256",
          "name": "",
          "type": "uint256"
        }
      ],
      "name": "myFollowing",
      "outputs": [
        {
          "internalType": "address",
          "name": "",
          "type": "address"
        }
      ],
      "stateMutability": "view",
      "type": "function",
      "constant": true
    },
    {
      "inputs": [
        {
          "internalType": "address",
          "name": "",
          "type": "address"
        },
        {
          "internalType": "uint256",
          "name": "",
          "type": "uint256"
        }
      ],
      "name": "myLibrary",
      "outputs": [
        {
          "internalType": "uint256",
          "name": "",
          "type": "uint256"
        }
      ],
      "stateMutability": "view",
      "type": "function",
      "constant": true
    },
    {
      "inputs": [],
      "name": "myEvidenceCount",
      "outputs": [
        {
          "internalType": "uint256",
          "name": "",
          "type": "uint256"
        }
      ],
      "stateMutability": "view",
      "type": "function",
      "constant": true
    },
    {
      "inputs": [
        {
          "internalType": "uint256",
          "name": "i",
          "type": "uint256"
        }
      ],
      "name": "getMyEvidence",
      "outputs": [
        {
          "internalType": "uint256",
          "name": "",
          "type": "uint256"
        }
      ],
      "stateMutability": "view",
      "type": "function",
      "constant": true
    },
    {
      "inputs": [
        {
          "internalType": "uint256",
          "name": "i",
          "type": "uint256"
        }
      ],
      "name": "getEvidence",
      "outputs": [
        {
          "internalType": "string",
          "name": "",
          "type": "string"
        }
      ],
      "stateMutability": "view",
      "type": "function",
      "constant": true
    },
    {
      "inputs": [],
      "name": "getArticleCount",
      "outputs": [
        {
          "internalType": "uint256",
          "name": "",
          "type": "uint256"
        }
      ],
      "stateMutability": "view",
      "type": "function",
      "constant": true
    },
    {
      "inputs": [
        {
          "internalType": "uint256",
          "name": "i",
          "type": "uint256"
        }
      ],
      "name": "getArticle",
      "outputs": [
        {
          "components": [
            {
              "internalType": "string",
              "name": "title",
              "type": "string"
            },
            {
              "internalType": "address payable",
              "name": "author",
              "type": "address"
            },
            {
              "internalType": "string",
              "name": "evidence",
              "type": "string"
            },
            {
              "internalType": "bool",
              "name": "proof",
              "type": "bool"
            },
            {
              "internalType": "uint256",
              "name": "price",
              "type": "uint256"
            },
            {
              "internalType": "string",
              "name": "summary",
              "type": "string"
            },
            {
              "internalType": "string",
              "name": "content",
              "type": "string"
            },
            {
              "internalType": "uint256",
              "name": "credibility",
              "type": "uint256"
            },
            {
              "internalType": "address[]",
              "name": "readers",
              "type": "address[]"
            },
            {
              "internalType": "address[]",
              "name": "raters",
              "type": "address[]"
            },
            {
              "internalType": "address payable[]",
              "name": "toCompensate",
              "type": "address[]"
            }
          ],
          "internalType": "struct Articulate.Article",
          "name": "",
          "type": "tuple"
        }
      ],
      "stateMutability": "view",
      "type": "function",
      "constant": true
    },
    {
      "inputs": [],
      "name": "myArticleCount",
      "outputs": [
        {
          "internalType": "uint256",
          "name": "",
          "type": "uint256"
        }
      ],
      "stateMutability": "view",
      "type": "function",
      "constant": true
    },
    {
      "inputs": [
        {
          "internalType": "address",
          "name": "user",
          "type": "address"
        }
      ],
      "name": "userArticleCount",
      "outputs": [
        {
          "internalType": "uint256",
          "name": "",
          "type": "uint256"
        }
      ],
      "stateMutability": "view",
      "type": "function",
      "constant": true
    },
    {
      "inputs": [
        {
          "internalType": "uint256",
          "name": "i",
          "type": "uint256"
        }
      ],
      "name": "getMyArticles",
      "outputs": [
        {
          "internalType": "uint256",
          "name": "",
          "type": "uint256"
        }
      ],
      "stateMutability": "view",
      "type": "function",
      "constant": true
    },
    {
      "inputs": [
        {
          "internalType": "address",
          "name": "user",
          "type": "address"
        },
        {
          "internalType": "uint256",
          "name": "i",
          "type": "uint256"
        }
      ],
      "name": "getUserArticles",
      "outputs": [
        {
          "internalType": "uint256",
          "name": "",
          "type": "uint256"
        }
      ],
      "stateMutability": "view",
      "type": "function",
      "constant": true
    },
    {
      "inputs": [],
      "name": "myLibraryCount",
      "outputs": [
        {
          "internalType": "uint256",
          "name": "",
          "type": "uint256"
        }
      ],
      "stateMutability": "view",
      "type": "function",
      "constant": true
    },
    {
      "inputs": [
        {
          "internalType": "address",
          "name": "user",
          "type": "address"
        }
      ],
      "name": "userLibraryCount",
      "outputs": [
        {
          "internalType": "uint256",
          "name": "",
          "type": "uint256"
        }
      ],
      "stateMutability": "view",
      "type": "function",
      "constant": true
    },
    {
      "inputs": [
        {
          "internalType": "uint256",
          "name": "i",
          "type": "uint256"
        }
      ],
      "name": "getMyLibrary",
      "outputs": [
        {
          "internalType": "uint256",
          "name": "",
          "type": "uint256"
        }
      ],
      "stateMutability": "view",
      "type": "function",
      "constant": true
    },
    {
      "inputs": [
        {
          "internalType": "address",
          "name": "user",
          "type": "address"
        },
        {
          "internalType": "uint256",
          "name": "i",
          "type": "uint256"
        }
      ],
      "name": "getUserLibrary",
      "outputs": [
        {
          "internalType": "uint256",
          "name": "",
          "type": "uint256"
        }
      ],
      "stateMutability": "view",
      "type": "function",
      "constant": true
    },
    {
      "inputs": [],
      "name": "getReputation",
      "outputs": [
        {
          "internalType": "uint256",
          "name": "",
          "type": "uint256"
        }
      ],
      "stateMutability": "view",
      "type": "function",
      "constant": true
    },
    {
      "inputs": [
        {
          "internalType": "address",
          "name": "user",
          "type": "address"
        }
      ],
      "name": "getUserReputation",
      "outputs": [
        {
          "internalType": "uint256",
          "name": "",
          "type": "uint256"
        }
      ],
      "stateMutability": "view",
      "type": "function",
      "constant": true
    },
    {
      "inputs": [
        {
          "internalType": "string",
          "name": "newEvidence",
          "type": "string"
        }
      ],
      "name": "addEvidence",
      "outputs": [],
      "stateMutability": "nonpayable",
      "type": "function"
    },
    {
      "inputs": [
        {
          "internalType": "string",
          "name": "evidence",
          "type": "string"
        }
      ],
      "name": "calculateProof",
      "outputs": [
        {
          "internalType": "bool",
          "name": "",
          "type": "bool"
        }
      ],
      "stateMutability": "view",
      "type": "function",
      "constant": true
    },
    {
      "inputs": [
        {
          "internalType": "string",
          "name": "title",
          "type": "string"
        },
        {
          "internalType": "string",
          "name": "evidence",
          "type": "string"
        },
        {
          "internalType": "uint256",
          "name": "price",
          "type": "uint256"
        },
        {
          "internalType": "string",
          "name": "summary",
          "type": "string"
        },
        {
          "internalType": "string",
          "name": "content",
          "type": "string"
        }
      ],
      "name": "publishArticle",
      "outputs": [],
      "stateMutability": "nonpayable",
      "type": "function"
    },
    {
      "inputs": [
        {
          "internalType": "uint256",
          "name": "i",
          "type": "uint256"
        }
      ],
      "name": "purchasedArticle",
      "outputs": [
        {
          "internalType": "bool",
          "name": "",
          "type": "bool"
        }
      ],
      "stateMutability": "view",
      "type": "function",
      "constant": true
    },
    {
      "inputs": [
        {
          "internalType": "uint256",
          "name": "i",
          "type": "uint256"
        }
      ],
      "name": "hasPermission",
      "outputs": [
        {
          "internalType": "bool",
          "name": "",
          "type": "bool"
        }
      ],
      "stateMutability": "view",
      "type": "function",
      "constant": true
    },
    {
      "inputs": [
        {
          "internalType": "uint256",
          "name": "i",
          "type": "uint256"
        }
      ],
      "name": "readArticle",
      "outputs": [],
      "stateMutability": "payable",
      "type": "function",
      "payable": true
    },
    {
      "inputs": [
        {
          "internalType": "uint256",
          "name": "i",
          "type": "uint256"
        },
        {
          "internalType": "uint256",
          "name": "rating",
          "type": "uint256"
        }
      ],
      "name": "rateArticle",
      "outputs": [],
      "stateMutability": "nonpayable",
      "type": "function"
    },
    {
      "inputs": [
        {
          "internalType": "uint256",
          "name": "i",
          "type": "uint256"
        }
      ],
      "name": "compensateRaters",
      "outputs": [],
      "stateMutability": "payable",
      "type": "function",
      "payable": true
    },
    {
      "inputs": [
        {
          "internalType": "string",
          "name": "i",
          "type": "string"
        }
      ],
      "name": "addBio",
      "outputs": [],
      "stateMutability": "nonpayable",
      "type": "function"
    },
    {
      "inputs": [],
      "name": "getBio",
      "outputs": [
        {
          "internalType": "string",
          "name": "",
          "type": "string"
        }
      ],
      "stateMutability": "view",
      "type": "function",
      "constant": true
    },
    {
      "inputs": [
        {
          "internalType": "address",
          "name": "user",
          "type": "address"
        }
      ],
      "name": "getUserBio",
      "outputs": [
        {
          "internalType": "string",
          "name": "",
          "type": "string"
        }
      ],
      "stateMutability": "view",
      "type": "function",
      "constant": true
    },
    {
      "inputs": [
        {
          "internalType": "string",
          "name": "article",
          "type": "string"
        },
        {
          "internalType": "string",
          "name": "message",
          "type": "string"
        }
      ],
      "name": "addComment",
      "outputs": [],
      "stateMutability": "nonpayable",
      "type": "function"
    },
    {
      "inputs": [
        {
          "internalType": "string",
          "name": "article",
          "type": "string"
        }
      ],
      "name": "getCommentCount",
      "outputs": [
        {
          "internalType": "uint256",
          "name": "",
          "type": "uint256"
        }
      ],
      "stateMutability": "view",
      "type": "function",
      "constant": true
    },
    {
      "inputs": [
        {
          "internalType": "string",
          "name": "article",
          "type": "string"
        },
        {
          "internalType": "uint256",
          "name": "i",
          "type": "uint256"
        }
      ],
      "name": "getCommentsByArticle",
      "outputs": [
        {
          "internalType": "uint256",
          "name": "",
          "type": "uint256"
        }
      ],
      "stateMutability": "view",
      "type": "function",
      "constant": true
    },
    {
      "inputs": [
        {
          "internalType": "uint256",
          "name": "i",
          "type": "uint256"
        }
      ],
      "name": "getComment",
      "outputs": [
        {
          "components": [
            {
              "internalType": "address",
              "name": "sender",
              "type": "address"
            },
            {
              "internalType": "string",
              "name": "message",
              "type": "string"
            }
          ],
          "internalType": "struct Articulate.Comment",
          "name": "",
          "type": "tuple"
        }
      ],
      "stateMutability": "view",
      "type": "function",
      "constant": true
    },
    {
      "inputs": [
        {
          "internalType": "address",
          "name": "author",
          "type": "address"
        }
      ],
      "name": "followAuthor",
      "outputs": [],
      "stateMutability": "nonpayable",
      "type": "function"
    },
    {
      "inputs": [],
      "name": "myFollowingCount",
      "outputs": [
        {
          "internalType": "uint256",
          "name": "",
          "type": "uint256"
        }
      ],
      "stateMutability": "view",
      "type": "function",
      "constant": true
    },
    {
      "inputs": [
        {
          "internalType": "uint256",
          "name": "i",
          "type": "uint256"
        }
      ],
      "name": "getMyFollowing",
      "outputs": [
        {
          "internalType": "address",
          "name": "",
          "type": "address"
        }
      ],
      "stateMutability": "view",
      "type": "function",
      "constant": true
    }
  ],
  "bytecode": "0x608060405234801561001057600080fd5b50614746806100206000396000f3fe6080604052600436106102515760003560e01c8063968734f411610139578063c956f143116100b6578063edcfafe61161007a578063edcfafe6146109e9578063f39ce2d714610a2d578063f710fe8d14610a6a578063f7f7c47d14610a95578063fa165e8f14610ad2578063ffe6a18e14610afd57610251565b8063c956f143146108dc578063cd8c317814610919578063e0a0e52c14610956578063e899d5ff14610993578063ed5f06a6146109be57610251565b8063b80061d9116100fd578063b80061d9146107ab578063baccbfdb146107e8578063bb58aef614610825578063bd85d86714610862578063c23517041461089f57610251565b8063968734f4146106a05780639e3c201a146106dd578063a354165914610708578063ae5ff90514610745578063b6b1b1c51461076e57610251565b806358194def116101d257806368cafde21161019657806368cafde21461057a578063760f2c15146105a357806376dbd108146105cc5780637b3d18321461060957806387898642146106465780638ebb4c151461066257610251565b806358194def1461047e5780635a386204146104a75780635b0ba1ae146104e45780635f2b4ad31461052157806367b383ab1461053d57610251565b80632b9ebc86116102195780632b9ebc86146103735780632ccddbe6146103b057806338ba08c1146103db57806351a94a5f14610418578063526264a41461044157610251565b806305699e89146102565780630800e3001461027f5780631eb7c6f8146102bc57806325866bfa146102f95780632824440314610336575b600080fd5b34801561026257600080fd5b5061027d60048036036102789190810190613815565b610b28565b005b34801561028b57600080fd5b506102a660048036036102a19190810190613aa6565b610c3a565b6040516102b391906144a9565b60405180910390f35b3480156102c857600080fd5b506102e360048036036102de919081019061383e565b610d67565b6040516102f09190614203565b60405180910390f35b34801561030557600080fd5b50610320600480360361031b9190810190613a52565b610db2565b60405161032d91906144cb565b60405180910390f35b34801561034257600080fd5b5061035d60048036036103589190810190613aa6565b610df6565b60405161036a91906144cb565b60405180910390f35b34801561037f57600080fd5b5061039a60048036036103959190810190613815565b610e54565b6040516103a79190614269565b60405180910390f35b3480156103bc57600080fd5b506103c5610f04565b6040516103d291906144cb565b60405180910390f35b3480156103e757600080fd5b5061040260048036036103fd9190810190613815565b610f4e565b60405161040f91906144cb565b60405180910390f35b34801561042457600080fd5b5061043f600480360361043a919081019061387a565b610f9a565b005b34801561044d57600080fd5b506104686004803603610463919081019061383e565b611044565b60405161047591906144cb565b60405180910390f35b34801561048a57600080fd5b506104a560048036036104a0919081019061387a565b6110a3565b005b3480156104b357600080fd5b506104ce60048036036104c99190810190613815565b61114c565b6040516104db919061428b565b60405180910390f35b3480156104f057600080fd5b5061050b60048036036105069190810190613aa6565b61122d565b60405161051891906144cb565b60405180910390f35b61053b60048036036105369190810190613aa6565b61128b565b005b34801561054957600080fd5b50610564600480360361055f919081019061383e565b6114e1565b60405161057191906144cb565b60405180910390f35b34801561058657600080fd5b506105a1600480360361059c9190810190613927565b61150f565b005b3480156105af57600080fd5b506105ca60048036036105c59190810190613acf565b6118b3565b005b3480156105d857600080fd5b506105f360048036036105ee919081019061387a565b611eb9565b604051610600919061424e565b60405180910390f35b34801561061557600080fd5b50610630600480360361062b91908101906139fe565b611f52565b60405161063d91906144cb565b60405180910390f35b610660600480360361065b9190810190613aa6565b611f90565b005b34801561066e57600080fd5b5061068960048036036106849190810190613aa6565b61216e565b60405161069792919061421e565b60405180910390f35b3480156106ac57600080fd5b506106c760048036036106c2919081019061383e565b612257565b6040516106d491906144cb565b60405180910390f35b3480156106e957600080fd5b506106f2612285565b6040516106ff91906144cb565b60405180910390f35b34801561071457600080fd5b5061072f600480360361072a919081019061383e565b6122cf565b60405161073c91906144cb565b60405180910390f35b34801561075157600080fd5b5061076c600480360361076791908101906138bb565b6122fd565b005b34801561077a57600080fd5b5061079560048036036107909190810190613aa6565b612459565b6040516107a2919061424e565b60405180910390f35b3480156107b757600080fd5b506107d260048036036107cd9190810190613aa6565b612529565b6040516107df9190614269565b60405180910390f35b3480156107f457600080fd5b5061080f600480360361080a9190810190613815565b6125e2565b60405161081c91906144cb565b60405180910390f35b34801561083157600080fd5b5061084c60048036036108479190810190613aa6565b61262b565b604051610859919061424e565b60405180910390f35b34801561086e57600080fd5b5061088960048036036108849190810190613aa6565b6126c1565b6040516108969190614487565b60405180910390f35b3480156108ab57600080fd5b506108c660048036036108c1919081019061383e565b612bae565b6040516108d391906144cb565b60405180910390f35b3480156108e857600080fd5b5061090360048036036108fe9190810190613aa6565b612c0d565b604051610910919061428b565b60405180910390f35b34801561092557600080fd5b50610940600480360361093b9190810190613aa6565b612cc6565b60405161094d91906144cb565b60405180910390f35b34801561096257600080fd5b5061097d60048036036109789190810190613aa6565b612d24565b60405161098a9190614203565b60405180910390f35b34801561099f57600080fd5b506109a8612da2565b6040516109b591906144cb565b60405180910390f35b3480156109ca57600080fd5b506109d3612dae565b6040516109e091906144cb565b60405180910390f35b3480156109f557600080fd5b50610a106004803603610a0b9190810190613aa6565b612df8565b604051610a249897969594939291906142ad565b60405180910390f35b348015610a3957600080fd5b50610a546004803603610a4f9190810190613815565b6130da565b604051610a6191906144cb565b60405180910390f35b348015610a7657600080fd5b50610a7f613126565b604051610a8c91906144cb565b60405180910390f35b348015610aa157600080fd5b50610abc6004803603610ab7919081019061387a565b613170565b604051610ac991906144cb565b60405180910390f35b348015610ade57600080fd5b50610ae761319b565b604051610af4919061428b565b60405180910390f35b348015610b0957600080fd5b50610b1261327a565b604051610b1f91906144cb565b60405180910390f35b3373ffffffffffffffffffffffffffffffffffffffff168173ffffffffffffffffffffffffffffffffffffffff161415610b97576040517f08c379a0000000000000000000000000000000000000000000000000000000008152600401610b8e906143e7565b60405180910390fd5b600960003373ffffffffffffffffffffffffffffffffffffffff1673ffffffffffffffffffffffffffffffffffffffff168152602001908152602001600020819080600181540180825580915050600190039060005260206000200160009091909190916101000a81548173ffffffffffffffffffffffffffffffffffffffff021916908373ffffffffffffffffffffffffffffffffffffffff16021790555050565b610c426133c1565b60078281548110610c4f57fe5b90600052602060002090600202016040518060400160405290816000820160009054906101000a900473ffffffffffffffffffffffffffffffffffffffff1673ffffffffffffffffffffffffffffffffffffffff1673ffffffffffffffffffffffffffffffffffffffff168152602001600182018054600181600116156101000203166002900480601f016020809104026020016040519081016040528092919081815260200182805460018160011615610100020316600290048015610d575780601f10610d2c57610100808354040283529160200191610d57565b820191906000526020600020905b815481529060010190602001808311610d3a57829003601f168201915b5050505050815250509050919050565b60096020528160005260406000208181548110610d8057fe5b906000526020600020016000915091509054906101000a900473ffffffffffffffffffffffffffffffffffffffff1681565b6008828051602081018201805184825260208301602085012081835280955050505050508181548110610de157fe5b90600052602060002001600091509150505481565b6000600160003373ffffffffffffffffffffffffffffffffffffffff1673ffffffffffffffffffffffffffffffffffffffff1681526020019081526020016000208281548110610e4257fe5b90600052602060002001549050919050565b60066020528060005260406000206000915090508054600181600116156101000203166002900480601f016020809104026020016040519081016040528092919081815260200182805460018160011615610100020316600290048015610efc5780601f10610ed157610100808354040283529160200191610efc565b820191906000526020600020905b815481529060010190602001808311610edf57829003601f168201915b505050505081565b6000600160003373ffffffffffffffffffffffffffffffffffffffff1673ffffffffffffffffffffffffffffffffffffffff16815260200190815260200160002080549050905090565b6000600260008373ffffffffffffffffffffffffffffffffffffffff1673ffffffffffffffffffffffffffffffffffffffff168152602001908152602001600020805490509050919050565b600581908060018154018082558091505060019003906000526020600020016000909190919091509080519060200190610fd59291906133f1565b50600160003373ffffffffffffffffffffffffffffffffffffffff1673ffffffffffffffffffffffffffffffffffffffff168152602001908152602001600020600580549050908060018154018082558091505060019003906000526020600020016000909190919091505550565b6000600360008473ffffffffffffffffffffffffffffffffffffffff1673ffffffffffffffffffffffffffffffffffffffff168152602001908152602001600020828154811061109057fe5b9060005260206000200154905092915050565b600081511180156110b657506127108151105b6110f5576040517f08c379a00000000000000000000000000000000000000000000000000000000081526004016110ec90614467565b60405180910390fd5b80600660003373ffffffffffffffffffffffffffffffffffffffff1673ffffffffffffffffffffffffffffffffffffffff16815260200190815260200160002090805190602001906111489291906133f1565b5050565b6060600660008373ffffffffffffffffffffffffffffffffffffffff1673ffffffffffffffffffffffffffffffffffffffff1681526020019081526020016000208054600181600116156101000203166002900480601f0160208091040260200160405190810160405280929190818152602001828054600181600116156101000203166002900480156112215780601f106111f657610100808354040283529160200191611221565b820191906000526020600020905b81548152906001019060200180831161120457829003601f168201915b50505050509050919050565b6000600260003373ffffffffffffffffffffffffffffffffffffffff1673ffffffffffffffffffffffffffffffffffffffff168152602001908152602001600020828154811061127957fe5b90600052602060002001549050919050565b6000818154811061129857fe5b90600052602060002090600b020160010160009054906101000a900473ffffffffffffffffffffffffffffffffffffffff1673ffffffffffffffffffffffffffffffffffffffff163373ffffffffffffffffffffffffffffffffffffffff161415801561130b575061130981612459565b155b61131457600080fd5b6000818154811061132157fe5b90600052602060002090600b0201600401543414611374576040517f08c379a000000000000000000000000000000000000000000000000000000000815260040161136b906143a7565b60405180910390fd5b6000818154811061138157fe5b90600052602060002090600b020160010160009054906101000a900473ffffffffffffffffffffffffffffffffffffffff1673ffffffffffffffffffffffffffffffffffffffff166108fc349081150290604051600060405180830381858888f193505050501580156113f8573d6000803e3d6000fd5b50600360003373ffffffffffffffffffffffffffffffffffffffff1673ffffffffffffffffffffffffffffffffffffffff1681526020019081526020016000208190806001815401808255809150506001900390600052602060002001600090919091909150556000818154811061146c57fe5b90600052602060002090600b0201600801339080600181540180825580915050600190039060005260206000200160009091909190916101000a81548173ffffffffffffffffffffffffffffffffffffffff021916908373ffffffffffffffffffffffffffffffffffffffff16021790555050565b600160205281600052604060002081815481106114fa57fe5b90600052602060002001600091509150505481565b60008551118015611521575060148551105b611560576040517f08c379a000000000000000000000000000000000000000000000000000000000815260040161155790614387565b60405180910390fd5b6000815111801561157357506127108151105b6115b2576040517f08c379a00000000000000000000000000000000000000000000000000000000081526004016115a990614367565b60405180910390fd5b60006115bd85611eb9565b9050600081156115d057600790506115d5565b600090505b60006040518061016001604052808981526020013373ffffffffffffffffffffffffffffffffffffffff1681526020018881526020018415158152602001878152602001868152602001858152602001838152602001600060405190808252806020026020018201604052801561165b5781602001602082028038833980820191505090505b50815260200160006040519080825280602002602001820160405280156116915781602001602082028038833980820191505090505b50815260200160006040519080825280602002602001820160405280156116c75781602001602082028038833980820191505090505b5081525090806001815401808255809150506001900390600052602060002090600b02016000909190919091506000820151816000019080519060200190611710929190613471565b5060208201518160010160006101000a81548173ffffffffffffffffffffffffffffffffffffffff021916908373ffffffffffffffffffffffffffffffffffffffff1602179055506040820151816002019080519060200190611774929190613471565b5060608201518160030160006101000a81548160ff0219169083151502179055506080820151816004015560a08201518160050190805190602001906117bb929190613471565b5060c08201518160060190805190602001906117d8929190613471565b5060e082015181600701556101008201518160080190805190602001906118009291906134f1565b5061012082015181600901908051906020019061181e9291906134f1565b5061014082015181600a01908051906020019061183c92919061357b565b505050600260003373ffffffffffffffffffffffffffffffffffffffff1673ffffffffffffffffffffffffffffffffffffffff168152602001908152602001600020600080549050908060018154018082558091505060019003906000526020600020016000909190919091505550505050505050565b6000811180156118c35750600881105b611902576040517f08c379a00000000000000000000000000000000000000000000000000000000081526004016118f990614407565b60405180910390fd5b6000828154811061190f57fe5b90600052602060002090600b020160010160009054906101000a900473ffffffffffffffffffffffffffffffffffffffff1673ffffffffffffffffffffffffffffffffffffffff163373ffffffffffffffffffffffffffffffffffffffff1614156119af576040517f08c379a00000000000000000000000000000000000000000000000000000000081526004016119a690614447565b60405180910390fd5b600082815481106119bc57fe5b90600052602060002090600b0201600901339080600181540180825580915050600190039060005260206000200160009091909190916101000a81548173ffffffffffffffffffffffffffffffffffffffff021916908373ffffffffffffffffffffffffffffffffffffffff16021790555060008281548110611a3b57fe5b90600052602060002090600b0201600a01339080600181540180825580915050600190039060005260206000200160009091909190916101000a81548173ffffffffffffffffffffffffffffffffffffffff021916908373ffffffffffffffffffffffffffffffffffffffff16021790555060008281548110611aba57fe5b90600052602060002090600b020160030160009054906101000a900460ff1615611b9557611b6e60026007611b5f600160008781548110611af757fe5b90600052602060002090600b020160090180549050018560008881548110611b1b57fe5b90600052602060002090600b02016009018054905060008981548110611b3d57fe5b90600052602060002090600b02016007015402016132c190919063ffffffff16565b016132c190919063ffffffff16565b60008381548110611b7b57fe5b90600052602060002090600b020160070181905550611c32565b611c0f600160008481548110611ba757fe5b90600052602060002090600b020160090180549050018260008581548110611bcb57fe5b90600052602060002090600b02016009018054905060008681548110611bed57fe5b90600052602060002090600b02016007015402016132c190919063ffffffff16565b60008381548110611c1c57fe5b90600052602060002090600b0201600701819055505b600080905060008090505b60026000808681548110611c4d57fe5b90600052602060002090600b020160010160009054906101000a900473ffffffffffffffffffffffffffffffffffffffff1673ffffffffffffffffffffffffffffffffffffffff1673ffffffffffffffffffffffffffffffffffffffff16815260200190815260200160002080549050811015611d9e576000600160026000808881548110611cd857fe5b90600052602060002090600b020160010160009054906101000a900473ffffffffffffffffffffffffffffffffffffffff1673ffffffffffffffffffffffffffffffffffffffff1673ffffffffffffffffffffffffffffffffffffffff1681526020019081526020016000208381548110611d4f57fe5b9060005260206000200154039050611d8e60008281548110611d6d57fe5b90600052602060002090600b0201600701548461330b90919063ffffffff16565b9250508080600101915050611c3d565b50611e3160026000808681548110611db257fe5b90600052602060002090600b020160010160009054906101000a900473ffffffffffffffffffffffffffffffffffffffff1673ffffffffffffffffffffffffffffffffffffffff1673ffffffffffffffffffffffffffffffffffffffff16815260200190815260200160002080549050826132c190919063ffffffff16565b90508060046000808681548110611e4457fe5b90600052602060002090600b020160010160009054906101000a900473ffffffffffffffffffffffffffffffffffffffff1673ffffffffffffffffffffffffffffffffffffffff1673ffffffffffffffffffffffffffffffffffffffff16815260200190815260200160002081905550505050565b60008060009050600580549050811015611f4b5760058181548110611eda57fe5b90600052602060002001604051602001611ef491906141ec565b6040516020818303038152906040528051906020012083604051602001611f1b91906141d5565b604051602081830303815290604052805190602001201415611f41576001915050611f4d565b6000915050611f4d565b505b919050565b6000600883604051611f6491906141d5565b90815260200160405180910390208281548110611f7d57fe5b9060005260206000200154905092915050565b60008181548110611f9d57fe5b90600052602060002090600b020160010160009054906101000a900473ffffffffffffffffffffffffffffffffffffffff1673ffffffffffffffffffffffffffffffffffffffff163373ffffffffffffffffffffffffffffffffffffffff161461203c576040517f08c379a0000000000000000000000000000000000000000000000000000000008152600401612033906143c7565b60405180910390fd5b60005b6000828154811061204c57fe5b90600052602060002090600b020160090180549050811015612140576000828154811061207557fe5b90600052602060002090600b0201600a01818154811061209157fe5b9060005260206000200160009054906101000a900473ffffffffffffffffffffffffffffffffffffffff1673ffffffffffffffffffffffffffffffffffffffff166108fc612107600a600086815481106120e757fe5b90600052602060002090600b0201600401546132c190919063ffffffff16565b9081150290604051600060405180830381858888f19350505050158015612132573d6000803e3d6000fd5b50808060010191505061203f565b506000818154811061214e57fe5b90600052602060002090600b0201600a01600061216b9190613605565b50565b6007818154811061217b57fe5b90600052602060002090600202016000915090508060000160009054906101000a900473ffffffffffffffffffffffffffffffffffffffff1690806001018054600181600116156101000203166002900480601f01602080910402602001604051908101604052809291908181526020018280546001816001161561010002031660029004801561224d5780601f106122225761010080835404028352916020019161224d565b820191906000526020600020905b81548152906001019060200180831161223057829003601f168201915b5050505050905082565b6002602052816000526040600020818154811061227057fe5b90600052602060002001600091509150505481565b6000600360003373ffffffffffffffffffffffffffffffffffffffff1673ffffffffffffffffffffffffffffffffffffffff16815260200190815260200160002080549050905090565b600360205281600052604060002081815481106122e857fe5b90600052602060002001600091509150505481565b6000815111801561231057506101f48151105b61234f576040517f08c379a000000000000000000000000000000000000000000000000000000000815260040161234690614427565b60405180910390fd5b600760405180604001604052803373ffffffffffffffffffffffffffffffffffffffff16815260200183815250908060018154018082558091505060019003906000526020600020906002020160009091909190915060008201518160000160006101000a81548173ffffffffffffffffffffffffffffffffffffffff021916908373ffffffffffffffffffffffffffffffffffffffff1602179055506020820151816001019080519060200190612408929190613471565b50505060088260405161241b91906141d5565b908152602001604051809103902060078054905090806001815401808255809150506001900390600052602060002001600090919091909150555050565b600080600090505b600360003373ffffffffffffffffffffffffffffffffffffffff1673ffffffffffffffffffffffffffffffffffffffff1681526020019081526020016000208054905081101561251e5782600360003373ffffffffffffffffffffffffffffffffffffffff1673ffffffffffffffffffffffffffffffffffffffff16815260200190815260200160002082815481106124f657fe5b90600052602060002001541415612511576001915050612524565b8080600101915050612461565b50600090505b919050565b6005818154811061253657fe5b906000526020600020016000915090508054600181600116156101000203166002900480601f0160208091040260200160405190810160405280929190818152602001828054600181600116156101000203166002900480156125da5780601f106125af576101008083540402835291602001916125da565b820191906000526020600020905b8154815290600101906020018083116125bd57829003601f168201915b505050505081565b6000600460008373ffffffffffffffffffffffffffffffffffffffff1673ffffffffffffffffffffffffffffffffffffffff168152602001908152602001600020549050919050565b600080828154811061263957fe5b90600052602060002090600b020160010160009054906101000a900473ffffffffffffffffffffffffffffffffffffffff1673ffffffffffffffffffffffffffffffffffffffff163373ffffffffffffffffffffffffffffffffffffffff1614806126a957506126a882612459565b5b156126b757600190506126bc565b600090505b919050565b6126c9613626565b600082815481106126d657fe5b90600052602060002090600b020160405180610160016040529081600082018054600181600116156101000203166002900480601f0160208091040260200160405190810160405280929190818152602001828054600181600116156101000203166002900480156127895780601f1061275e57610100808354040283529160200191612789565b820191906000526020600020905b81548152906001019060200180831161276c57829003601f168201915b505050505081526020016001820160009054906101000a900473ffffffffffffffffffffffffffffffffffffffff1673ffffffffffffffffffffffffffffffffffffffff1673ffffffffffffffffffffffffffffffffffffffff168152602001600282018054600181600116156101000203166002900480601f0160208091040260200160405190810160405280929190818152602001828054600181600116156101000203166002900480156128815780601f1061285657610100808354040283529160200191612881565b820191906000526020600020905b81548152906001019060200180831161286457829003601f168201915b505050505081526020016003820160009054906101000a900460ff1615151515815260200160048201548152602001600582018054600181600116156101000203166002900480601f0160208091040260200160405190810160405280929190818152602001828054600181600116156101000203166002900480156129485780601f1061291d57610100808354040283529160200191612948565b820191906000526020600020905b81548152906001019060200180831161292b57829003601f168201915b50505050508152602001600682018054600181600116156101000203166002900480601f0160208091040260200160405190810160405280929190818152602001828054600181600116156101000203166002900480156129ea5780601f106129bf576101008083540402835291602001916129ea565b820191906000526020600020905b8154815290600101906020018083116129cd57829003601f168201915b505050505081526020016007820154815260200160088201805480602002602001604051908101604052809291908181526020018280548015612a8257602002820191906000526020600020905b8160009054906101000a900473ffffffffffffffffffffffffffffffffffffffff1673ffffffffffffffffffffffffffffffffffffffff1681526020019060010190808311612a38575b5050505050815260200160098201805480602002602001604051908101604052809291908181526020018280548015612b1057602002820191906000526020600020905b8160009054906101000a900473ffffffffffffffffffffffffffffffffffffffff1673ffffffffffffffffffffffffffffffffffffffff1681526020019060010190808311612ac6575b50505050508152602001600a8201805480602002602001604051908101604052809291908181526020018280548015612b9e57602002820191906000526020600020905b8160009054906101000a900473ffffffffffffffffffffffffffffffffffffffff1673ffffffffffffffffffffffffffffffffffffffff1681526020019060010190808311612b54575b5050505050815250509050919050565b6000600260008473ffffffffffffffffffffffffffffffffffffffff1673ffffffffffffffffffffffffffffffffffffffff1681526020019081526020016000208281548110612bfa57fe5b9060005260206000200154905092915050565b606060058281548110612c1c57fe5b906000526020600020018054600181600116156101000203166002900480601f016020809104026020016040519081016040528092919081815260200182805460018160011615610100020316600290048015612cba5780601f10612c8f57610100808354040283529160200191612cba565b820191906000526020600020905b815481529060010190602001808311612c9d57829003601f168201915b50505050509050919050565b6000600360003373ffffffffffffffffffffffffffffffffffffffff1673ffffffffffffffffffffffffffffffffffffffff1681526020019081526020016000208281548110612d1257fe5b90600052602060002001549050919050565b6000600960003373ffffffffffffffffffffffffffffffffffffffff1673ffffffffffffffffffffffffffffffffffffffff1681526020019081526020016000208281548110612d7057fe5b9060005260206000200160009054906101000a900473ffffffffffffffffffffffffffffffffffffffff169050919050565b60008080549050905090565b6000600960003373ffffffffffffffffffffffffffffffffffffffff1673ffffffffffffffffffffffffffffffffffffffff16815260200190815260200160002080549050905090565b60008181548110612e0557fe5b90600052602060002090600b0201600091509050806000018054600181600116156101000203166002900480601f016020809104026020016040519081016040528092919081815260200182805460018160011615610100020316600290048015612eb15780601f10612e8657610100808354040283529160200191612eb1565b820191906000526020600020905b815481529060010190602001808311612e9457829003601f168201915b5050505050908060010160009054906101000a900473ffffffffffffffffffffffffffffffffffffffff1690806002018054600181600116156101000203166002900480601f016020809104026020016040519081016040528092919081815260200182805460018160011615610100020316600290048015612f755780601f10612f4a57610100808354040283529160200191612f75565b820191906000526020600020905b815481529060010190602001808311612f5857829003601f168201915b5050505050908060030160009054906101000a900460ff1690806004015490806005018054600181600116156101000203166002900480601f01602080910402602001604051908101604052809291908181526020018280546001816001161561010002031660029004801561302c5780601f106130015761010080835404028352916020019161302c565b820191906000526020600020905b81548152906001019060200180831161300f57829003601f168201915b505050505090806006018054600181600116156101000203166002900480601f0160208091040260200160405190810160405280929190818152602001828054600181600116156101000203166002900480156130ca5780601f1061309f576101008083540402835291602001916130ca565b820191906000526020600020905b8154815290600101906020018083116130ad57829003601f168201915b5050505050908060070154905088565b6000600360008373ffffffffffffffffffffffffffffffffffffffff1673ffffffffffffffffffffffffffffffffffffffff168152602001908152602001600020805490509050919050565b6000600260003373ffffffffffffffffffffffffffffffffffffffff1673ffffffffffffffffffffffffffffffffffffffff16815260200190815260200160002080549050905090565b600060088260405161318291906141d5565b9081526020016040518091039020805490509050919050565b6060600660003373ffffffffffffffffffffffffffffffffffffffff1673ffffffffffffffffffffffffffffffffffffffff1681526020019081526020016000208054600181600116156101000203166002900480601f0160208091040260200160405190810160405280929190818152602001828054600181600116156101000203166002900480156132705780601f1061324557610100808354040283529160200191613270565b820191906000526020600020905b81548152906001019060200180831161325357829003601f168201915b5050505050905090565b6000600460003373ffffffffffffffffffffffffffffffffffffffff1673ffffffffffffffffffffffffffffffffffffffff16815260200190815260200160002054905090565b600061330383836040518060400160405280601a81526020017f536166654d6174683a206469766973696f6e206279207a65726f000000000000815250613360565b905092915050565b600080828401905083811015613356576040517f08c379a000000000000000000000000000000000000000000000000000000000815260040161334d90614347565b60405180910390fd5b8091505092915050565b600080831182906133a7576040517f08c379a000000000000000000000000000000000000000000000000000000000815260040161339e919061428b565b60405180910390fd5b5060008385816133b357fe5b049050809150509392505050565b6040518060400160405280600073ffffffffffffffffffffffffffffffffffffffff168152602001606081525090565b828054600181600116156101000203166002900490600052602060002090601f016020900481019282601f1061343257805160ff1916838001178555613460565b82800160010185558215613460579182015b8281111561345f578251825591602001919060010190613444565b5b50905061346d9190613698565b5090565b828054600181600116156101000203166002900490600052602060002090601f016020900481019282601f106134b257805160ff19168380011785556134e0565b828001600101855582156134e0579182015b828111156134df5782518255916020019190600101906134c4565b5b5090506134ed9190613698565b5090565b82805482825590600052602060002090810192821561356a579160200282015b828111156135695782518260006101000a81548173ffffffffffffffffffffffffffffffffffffffff021916908373ffffffffffffffffffffffffffffffffffffffff16021790555091602001919060010190613511565b5b50905061357791906136bd565b5090565b8280548282559060005260206000209081019282156135f4579160200282015b828111156135f35782518260006101000a81548173ffffffffffffffffffffffffffffffffffffffff021916908373ffffffffffffffffffffffffffffffffffffffff1602179055509160200191906001019061359b565b5b5090506136019190613700565b5090565b50805460008255906000526020600020908101906136239190613698565b50565b60405180610160016040528060608152602001600073ffffffffffffffffffffffffffffffffffffffff16815260200160608152602001600015158152602001600081526020016060815260200160608152602001600081526020016060815260200160608152602001606081525090565b6136ba91905b808211156136b657600081600090555060010161369e565b5090565b90565b6136fd91905b808211156136f957600081816101000a81549073ffffffffffffffffffffffffffffffffffffffff0219169055506001016136c3565b5090565b90565b61374091905b8082111561373c57600081816101000a81549073ffffffffffffffffffffffffffffffffffffffff021916905550600101613706565b5090565b90565b600081359050613752816146e2565b92915050565b600082601f83011261376957600080fd5b813561377c61377782614513565b6144e6565b9150808252602083016020830185838301111561379857600080fd5b6137a383828461468f565b50505092915050565b600082601f8301126137bd57600080fd5b81356137d06137cb8261453f565b6144e6565b915080825260208301602083018583830111156137ec57600080fd5b6137f783828461468f565b50505092915050565b60008135905061380f816146f9565b92915050565b60006020828403121561382757600080fd5b600061383584828501613743565b91505092915050565b6000806040838503121561385157600080fd5b600061385f85828601613743565b925050602061387085828601613800565b9150509250929050565b60006020828403121561388c57600080fd5b600082013567ffffffffffffffff8111156138a657600080fd5b6138b2848285016137ac565b91505092915050565b600080604083850312156138ce57600080fd5b600083013567ffffffffffffffff8111156138e857600080fd5b6138f4858286016137ac565b925050602083013567ffffffffffffffff81111561391157600080fd5b61391d858286016137ac565b9150509250929050565b600080600080600060a0868803121561393f57600080fd5b600086013567ffffffffffffffff81111561395957600080fd5b613965888289016137ac565b955050602086013567ffffffffffffffff81111561398257600080fd5b61398e888289016137ac565b945050604061399f88828901613800565b935050606086013567ffffffffffffffff8111156139bc57600080fd5b6139c8888289016137ac565b925050608086013567ffffffffffffffff8111156139e557600080fd5b6139f1888289016137ac565b9150509295509295909350565b60008060408385031215613a1157600080fd5b600083013567ffffffffffffffff811115613a2b57600080fd5b613a37858286016137ac565b9250506020613a4885828601613800565b9150509250929050565b60008060408385031215613a6557600080fd5b600083013567ffffffffffffffff811115613a7f57600080fd5b613a8b85828601613758565b9250506020613a9c85828601613800565b9150509250929050565b600060208284031215613ab857600080fd5b6000613ac684828501613800565b91505092915050565b60008060408385031215613ae257600080fd5b6000613af085828601613800565b9250506020613b0185828601613800565b9150509250929050565b6000613b178383613b3b565b60208301905092915050565b6000613b2f8383613b59565b60208301905092915050565b613b4481614647565b82525050565b613b5381614647565b82525050565b613b6281614635565b82525050565b613b7181614635565b82525050565b6000613b82826145a0565b613b8c81856145e6565b9350613b978361456b565b8060005b83811015613bc8578151613baf8882613b23565b9750613bba836145cc565b925050600181019050613b9b565b5085935050505092915050565b6000613be0826145ab565b613bea81856145f7565b9350613bf58361457b565b8060005b83811015613c26578151613c0d8882613b0b565b9750613c18836145d9565b925050600181019050613bf9565b5085935050505092915050565b613c3c81614659565b82525050565b613c4b81614659565b82525050565b6000613c5c826145c1565b613c668185614619565b9350613c7681856020860161469e565b613c7f816146d1565b840191505092915050565b6000613c95826145c1565b613c9f818561462a565b9350613caf81856020860161469e565b80840191505092915050565b6000613cc6826145b6565b613cd08185614608565b9350613ce081856020860161469e565b613ce9816146d1565b840191505092915050565b6000613cff826145b6565b613d098185614619565b9350613d1981856020860161469e565b613d22816146d1565b840191505092915050565b600081546001811660008114613d4a5760018114613d6f57613db3565b607f6002830416613d5b818761462a565b955060ff1983168652808601935050613db3565b60028204613d7d818761462a565b9550613d888561458b565b60005b82811015613daa57815481890152600182019150602081019050613d8b565b82880195505050505b505092915050565b6000613dc8601b83614619565b91507f536166654d6174683a206164646974696f6e206f766572666c6f7700000000006000830152602082019050919050565b6000613e08600f83614619565b91507f496e76616c696420636f6e74656e7400000000000000000000000000000000006000830152602082019050919050565b6000613e48600d83614619565b91507f496e76616c6964207469746c65000000000000000000000000000000000000006000830152602082019050919050565b6000613e88600d83614619565b91507f496e76616c69642056616c7565000000000000000000000000000000000000006000830152602082019050919050565b6000613ec8602583614619565b91507f4f6e6c792074686520617574686f722063616e20636f6d70656e73617465207260008301527f61746572730000000000000000000000000000000000000000000000000000006020830152604082019050919050565b6000613f2e601a83614619565b91507f596f752063616e6e6f7420666f6c6c6f7720796f757273656c660000000000006000830152602082019050919050565b6000613f6e600e83614619565b91507f496e76616c696420726174696e670000000000000000000000000000000000006000830152602082019050919050565b6000613fae600f83614619565b91507f496e76616c6964206d65737361676500000000000000000000000000000000006000830152602082019050919050565b6000613fee601c83614619565b91507f43616e6e6f74207261746520796f7572206f776e2061727469636c65000000006000830152602082019050919050565b600061402e600b83614619565b91507f496e76616c69642062696f0000000000000000000000000000000000000000006000830152602082019050919050565b600061016083016000830151848203600086015261407f8282613cbb565b91505060208301516140946020860182613b3b565b50604083015184820360408601526140ac8282613cbb565b91505060608301516140c16060860182613c33565b5060808301516140d460808601826141b7565b5060a083015184820360a08601526140ec8282613cbb565b91505060c083015184820360c08601526141068282613cbb565b91505060e083015161411b60e08601826141b7565b506101008301518482036101008601526141358282613b77565b9150506101208301518482036101208601526141518282613b77565b91505061014083015184820361014086015261416d8282613bd5565b9150508091505092915050565b60006040830160008301516141926000860182613b59565b50602083015184820360208601526141aa8282613cbb565b9150508091505092915050565b6141c081614685565b82525050565b6141cf81614685565b82525050565b60006141e18284613c8a565b915081905092915050565b60006141f88284613d2d565b915081905092915050565b60006020820190506142186000830184613b68565b92915050565b60006040820190506142336000830185613b68565b81810360208301526142458184613cf4565b90509392505050565b60006020820190506142636000830184613c42565b92915050565b600060208201905081810360008301526142838184613cf4565b905092915050565b600060208201905081810360008301526142a58184613c51565b905092915050565b60006101008201905081810360008301526142c8818b613cf4565b90506142d7602083018a613b4a565b81810360408301526142e98189613cf4565b90506142f86060830188613c42565b61430560808301876141c6565b81810360a08301526143178186613cf4565b905081810360c083015261432b8185613cf4565b905061433a60e08301846141c6565b9998505050505050505050565b6000602082019050818103600083015261436081613dbb565b9050919050565b6000602082019050818103600083015261438081613dfb565b9050919050565b600060208201905081810360008301526143a081613e3b565b9050919050565b600060208201905081810360008301526143c081613e7b565b9050919050565b600060208201905081810360008301526143e081613ebb565b9050919050565b6000602082019050818103600083015261440081613f21565b9050919050565b6000602082019050818103600083015261442081613f61565b9050919050565b6000602082019050818103600083015261444081613fa1565b9050919050565b6000602082019050818103600083015261446081613fe1565b9050919050565b6000602082019050818103600083015261448081614021565b9050919050565b600060208201905081810360008301526144a18184614061565b905092915050565b600060208201905081810360008301526144c3818461417a565b905092915050565b60006020820190506144e060008301846141c6565b92915050565b6000604051905081810181811067ffffffffffffffff8211171561450957600080fd5b8060405250919050565b600067ffffffffffffffff82111561452a57600080fd5b601f19601f8301169050602081019050919050565b600067ffffffffffffffff82111561455657600080fd5b601f19601f8301169050602081019050919050565b6000819050602082019050919050565b6000819050602082019050919050565b60008190508160005260206000209050919050565b600081519050919050565b600081519050919050565b600081519050919050565b600081519050919050565b6000602082019050919050565b6000602082019050919050565b600082825260208201905092915050565b600082825260208201905092915050565b600082825260208201905092915050565b600082825260208201905092915050565b600081905092915050565b600061464082614665565b9050919050565b600061465282614665565b9050919050565b60008115159050919050565b600073ffffffffffffffffffffffffffffffffffffffff82169050919050565b6000819050919050565b82818337600083830152505050565b60005b838110156146bc5780820151818401526020810190506146a1565b838111156146cb576000848401525b50505050565b6000601f19601f8301169050919050565b6146eb81614635565b81146146f657600080fd5b50565b61470281614685565b811461470d57600080fd5b5056fea2646970667358221220dd1f61ac0304edeef0e479d21c6900bdb0a2b4cb1aa7ce058a4e1eb720312dce64736f6c63430006020033",
  "source": "//Project: Articulate\r\n//Author: Team Articulate\r\n//Date: October 1, 2020\r\n\r\n//Articulate is a censorship-free news platform focused on preventing the spread of fake news and promoting independant journalism.\r\n//Learn more here: [URL]\r\n\r\n//import \"https://github.com/OpenZeppelin/openzeppelin-contracts/blob/master/contracts/math/SafeMath.sol\";\r\nimport \"@openzeppelin/contracts/math/SafeMath.sol\";\r\n\r\npragma solidity 0.6.2;\r\npragma experimental ABIEncoderV2;\r\n\r\ncontract Articulate {\r\n\r\n    // To mitigate integer overflow\r\n    using SafeMath for uint256;\r\n\r\n\r\n\r\n\r\n    //Data\r\n\r\n    //Each article has a title, an author, evidence, a proof that the evidence is accurate, a price, a summary, content, a credibility score, an array of readers that have purchased the article, and an array of raters that have rated the article on credibility, and an array of raters that await compensation by the author for providing a rating on the credibility of the article.\r\n    struct Article {\r\n        string title;\r\n        address payable author;\r\n        string evidence;\r\n        bool proof;\r\n        uint256 price;\r\n        string summary;\r\n        string content;\r\n        uint256 credibility;\r\n        address[] readers;\r\n        address[] raters;\r\n        address payable[] toCompensate;\r\n    }\r\n\r\n    //Articles are serialized + stored in an array.\r\n    Article[] public articles;\r\n\r\n    //Each user has a library to store their evidence.\r\n    mapping(address => uint256[]) public myEvidence;\r\n\r\n    //Each user is mapped to an array of the articles they have written.\r\n    mapping(address => uint256[]) public myArticles;\r\n\r\n    //Each user is mapped to an array of the articles they have purchased.\r\n    mapping(address => uint256[]) public myLibrary;\r\n\r\n    //Each user is mapped to a reputation rating (calculated from their credibility).\r\n    mapping(address => uint256) reputation;\r\n\r\n\r\n\r\n\r\n\r\n    //Getter Functions\r\n    function myEvidenceCount() public view returns (uint256) {\r\n        return myEvidence[msg.sender].length;\r\n    }\r\n\r\n    function getMyEvidence(uint256 i) public view returns (uint256) {\r\n        return myEvidence[msg.sender][i];\r\n    }\r\n\r\n    function getEvidence(uint256 i) public view returns (string memory) {\r\n        return Evidence[i];\r\n    }\r\n\r\n    function getArticleCount() public view returns (uint256) {\r\n        return articles.length;\r\n    }\r\n\r\n    function getArticle(uint256 i) public view returns (Article memory) {\r\n        return articles[i];\r\n    }\r\n\r\n    function myArticleCount() public view returns (uint256) {\r\n        return myArticles[msg.sender].length;\r\n    }\r\n\r\n    function userArticleCount(address user) public view returns (uint256) {\r\n        return myArticles[user].length;\r\n    }\r\n\r\n    function getMyArticles(uint256 i) public view returns (uint256) {\r\n      return myArticles[msg.sender][i];\r\n    }\r\n\r\n    function getUserArticles(address user, uint256 i) public view returns (uint256) {\r\n        return myArticles[user][i];\r\n    }\r\n\r\n    function myLibraryCount() public view returns (uint256) {\r\n        return myLibrary[msg.sender].length;\r\n    }\r\n\r\n    function userLibraryCount(address user) public view returns (uint256) {\r\n        return myLibrary[user].length;\r\n    }\r\n\r\n    function getMyLibrary(uint256 i) public view returns (uint256) {\r\n      return myLibrary[msg.sender][i];\r\n    }\r\n\r\n    function getUserLibrary(address user, uint256 i) public view returns (uint256) {\r\n      return myLibrary[user][i];\r\n    }\r\n\r\n    function getReputation() public view returns (uint256) {\r\n        return reputation[msg.sender];\r\n    }\r\n\r\n    function getUserReputation(address user) public view returns (uint256) {\r\n        return reputation[user];\r\n    }\r\n\r\n\r\n\r\n\r\n    //Investigate (Camera Application)\r\n\r\n    //Evidence is serialized + stored in an array.\r\n    string[] public Evidence;\r\n\r\n    //When a user uploads new evidence (via our camera application), it is pushed to an array of serialized evidence and to their evidence library.\r\n    function addEvidence(string memory newEvidence) public {\r\n\r\n        Evidence.push(newEvidence);\r\n        myEvidence[msg.sender].push(Evidence.length);\r\n    }\r\n\r\n    //In order to verify the integrity of the evidence, our application determines whether or not it was uploaded from our camera application.\r\n    function calculateProof(string memory evidence) public view returns (bool) {\r\n        for (uint256 x = 0; x < Evidence.length; x++) {\r\n            if (keccak256(abi.encodePacked(evidence)) == keccak256(abi.encodePacked(Evidence[x]))) {\r\n                return true;\r\n            } else {\r\n                return false;\r\n            }\r\n        }\r\n    }\r\n\r\n\r\n\r\n\r\n\r\n    //Articulate (Main Application)\r\n\r\n    //To create an article, a user must specify a title, evidence, a price, a summary and content. This article is then pushed to an array of serialized articles.\r\n    function publishArticle(\r\n\r\n        string memory title,\r\n        string memory evidence,\r\n        uint256 price,\r\n        string memory summary,\r\n        string memory content\r\n\r\n    ) public {\r\n        require(bytes(title).length > 0 && bytes(title).length < 20, \"Invalid title\");\r\n        require(bytes(content).length > 0 && bytes(content).length < 10000, \"Invalid content\");\r\n\r\n         bool proof = calculateProof(evidence);\r\n\r\n         uint credibility;\r\n\r\n         if (proof) {\r\n           credibility = 7;\r\n         } else {\r\n           credibility = 0;\r\n         }\r\n\r\n        articles.push(\r\n            Article(title, msg.sender, evidence, proof, price, summary, content, credibility, new address[](0), new address[](0), new address payable[](0))\r\n        );\r\n        myArticles[msg.sender].push(articles.length);\r\n    }\r\n\r\n    //Utility function to determine whether or not a user has purchased an article\r\n    function purchasedArticle(uint256 i)\r\n        public\r\n        view\r\n        returns (bool)\r\n    {\r\n        for (uint256 x = 0; x < myLibrary[msg.sender].length; x++) {\r\n            if (myLibrary[msg.sender][x] == i) {\r\n                return true;\r\n            }\r\n        }\r\n        return false;\r\n    }\r\n\r\n    //Utility function to determine whether or not a user has permission to view an article\r\n    function hasPermission(uint256 i) public view returns (bool) {\r\n      if (msg.sender == articles[i].author || purchasedArticle(i)) {\r\n        return true;\r\n      }\r\n      return false;\r\n    }\r\n\r\n    //Once a user purchases an article, they are added to an array of readers and will not have to purchase the article again to read it a second or third time. Yes, we are promoting independant journalism as well! Centralized news sources can be highly biased which can also promote fake news.\r\n    function readArticle(uint256 i) public payable {\r\n      require(msg.sender != articles[i].author && !purchasedArticle(i));\r\n      require(msg.value == articles[i].price, \"Invalid Value\");\r\n\r\n        articles[i].author.transfer(msg.value);\r\n\r\n        myLibrary[msg.sender].push(i);\r\n        articles[i].readers.push(msg.sender);\r\n      }\r\n\r\n    //Each reader has the option to rate the credibility of the article. This affects the credibility score of the article which, in turn, affects the reputation rating of the author. For this reason, authors will generally compensate raters for their opinion. However, this is not always the case. If compensating raters for their opinion was mandatory, malicious users may take advantage of this feature to control the credibility of their article. This is why compensation is not directly tied to credibility rating. However, compensating raters is a best practice to provide an incentive for reader to crowdsource credibility and keep the credibility system running.\r\n    function rateArticle(uint256 i, uint256 rating) public {\r\n        require(rating > 0 && rating < 8, \"Invalid rating\");\r\n        require(msg.sender != articles[i].author, \"Cannot rate your own article\");\r\n\r\n        articles[i].raters.push(msg.sender);\r\n        articles[i].toCompensate.push(msg.sender);\r\n\r\n        if (articles[i].proof) {\r\n             articles[i].credibility = (((((articles[i].credibility)*articles[i].raters.length) + rating).div(articles[i].raters.length + 1)) + 7).div(2);\r\n        } else {\r\n             articles[i].credibility = (((articles[i].credibility)*articles[i].raters.length) + rating).div(articles[i].raters.length + 1);\r\n        }\r\n\r\n         uint256 myReputation = 0;\r\n         for (uint256 x = 0; x < myArticles[articles[i].author].length; x++) {\r\n\r\n             uint256 a = myArticles[articles[i].author][x] - 1;\r\n             myReputation = myReputation.add(articles[a].credibility);\r\n\r\n         }\r\n\r\n         myReputation = myReputation.div(myArticles[articles[i].author].length);\r\n         reputation[articles[i].author] = myReputation;\r\n    }\r\n\r\n    //Utility function to compensate raters\r\n    function compensateRaters(uint256 i) public payable {\r\n        require(msg.sender == articles[i].author, \"Only the author can compensate raters\");\r\n\r\n        for(uint256 x; x < articles[i].raters.length; x++){\r\n          articles[i].toCompensate[x].transfer(articles[i].price.div(10));\r\n        }\r\n        delete articles[i].toCompensate;\r\n    }\r\n\r\n\r\n\r\n\r\n\r\n    //Additional Features\r\n\r\n    //Bio\r\n    mapping(address => string) public bio;\r\n\r\n    function addBio(string memory i) public {\r\n      require(bytes(i).length > 0 && bytes(i).length < 10000, \"Invalid bio\");\r\n\r\n      bio[msg.sender] = i;\r\n    }\r\n\r\n    function getBio() public view returns (string memory) {\r\n      return bio[msg.sender];\r\n    }\r\n\r\n    function getUserBio(address user) public view returns (string memory) {\r\n      return bio[user];\r\n    }\r\n\r\n    //Comment\r\n    struct Comment {\r\n      address sender;\r\n      string message;\r\n    }\r\n\r\n    Comment[] public comments;\r\n    mapping(string => uint256[]) public commentsByArticle;\r\n\r\n    function addComment(string memory article, string memory message) public {\r\n      require(bytes(message).length > 0 && bytes(message).length < 500, \"Invalid message\");\r\n\r\n      comments.push(Comment(msg.sender, message));\r\n      return commentsByArticle[article].push(comments.length);\r\n    }\r\n\r\n    function getCommentCount(string memory article) public view returns (uint256) {\r\n      return commentsByArticle[article].length;\r\n    }\r\n\r\n    function getCommentsByArticle(string memory article, uint256 i) public view returns (uint256) {\r\n      return commentsByArticle[article][i];\r\n    }\r\n\r\n    function getComment(uint256 i) public view returns (Comment memory) {\r\n      return comments[i];\r\n    }\r\n\r\n    //Following\r\n    mapping(address => address[]) public myFollowing;\r\n\r\n    function followAuthor(address author) public {\r\n      require(author != msg.sender, \"You cannot follow yourself\");\r\n\r\n      myFollowing[msg.sender].push(author);\r\n    }\r\n\r\n    function myFollowingCount() public view returns (uint256) {\r\n      return myFollowing[msg.sender].length;\r\n    }\r\n\r\n    function getMyFollowing(uint i) public view returns (address) {\r\n      return myFollowing[msg.sender][i];\r\n    }\r\n\r\n}\r\n",
  "sourcePath": "C:/Users/sabri/OneDrive/Documents/GitHub/Articulate/contracts/Articulate.sol",
  "compiler": {
    "name": "solc",
    "version": "0.6.2+commit.bacdbe57.Emscripten.clang"
  },
  "schemaVersion": "3.2.4",
  "updatedAt": "2020-11-13T16:48:54.948Z",
  "networkType": "ethereum",
  "devdoc": {
    "methods": {}
  },
  "userdoc": {
    "methods": {}
  }
}